:1000000045C0000060C000005EC000005CC0000091
:100010005AC0000058C0000056C0000054C0000084
:1000200052C0000050C000004EC000004CC0000094
:100030004AC0000048C0000046C0000044C00000A4
:1000400042C0000040C000003EC000003CC00000B4
:100050003AC0000038C0000036C0000034C00000C4
:1000600032C0000030C000002EC000002CC00000D4
:100070002AC0000028C0000026C0000024C00000E4
:1000800022C0000020C000001EC0000011241FBEBE
:10009000CFEFD0E1DEBFCDBF11E0A0E0B1E0EEE9EF
:1000A000F2E000E00BBF02C007900D92A231B10751
:1000B000D9F721E0A2E1B1E001C01D92A731B2075A
:1000C000E1F799D0EAC09CCFE2E6F0E020812F6012
:1000D0002083208143E050E0481B590B81E090E0F1
:1000E00002C0880F991F4A95E2F78095822380838A
:1000F00062BB8FE99FE00197F1F700C0000008950F
:100100000F931F93CF93DF938C01C0E0D0E007C023
:10011000F801EC0FFD1F6081CE01D6DF2196C430BF
:10012000D105B4F3DF91CF911F910F9108950F93F3
:100130001F93CF93DB01AF70BB278B019C016894A9
:1001400013F836952795179507951694D1F7F8016A
:10015000EF70FF27072F182F292F3327A8014F7083
:1001600055278B019C010F2EFCE03695279517959E
:100170000795FA95D1F7F02D98016115C0E17C073C
:1001800081059105C8F46F3F71058105910509F05E
:1001900050F4603171058105910540F020E130E0B7
:1001A00040E150E009C020E130E006C020E130E04D
:1001B00040E150E0E0E1F0E0A050BF4F8C91A2E1BF
:1001C000B1E08C93E050FF4F808111968C93119792
:1001D000FA01E050FF4F808112968C931297F9013B
:1001E000E050FF4F808113968C931397CD01CF91F0
:1001F0001F910F91089587B38E7F87BB8FEF81BBCF
:100200008FE080936100C0E0D0E0C12CD12C76015A
:1002100005C0C0E0D0E0C12CD12C7601B09912C04D
:100220002FEF85EA9EE0215080409040E1F700C02A
:1002300000002196C330D1052CF0C0E0D0E0C12CE5
:10024000D12C7601C130D10569F0C230D10501F160
:100250002097F9F6E2E6F0E08081807F808380E4F9
:1002600082BBDCCFC114D10421E0E206F10418F412
:10027000C701B60103C060E070E0CB016B017C01F7
:100280002FEFC21AD20AE20AF20A51DF39DFC6CFD3
:0E029000C701B6014CDF34DFC1CFF894FFCFB9
:10029E003F065B4F666D7D277F67777C585E797171
:0202AE0000004E
:00000001FF
