S01400007465737430345F74696D65722E737265636C
S113000045C0000060C000005EC000005CC000008D
S11300105AC0000058C0000056C0000054C0000080
S113002052C0000050C000004EC000004CC0000090
S11300304AC0000048C0000078C0000044C000006E
S113004042C0000040C000003EC000003CC00000B0
S11300503AC0000038C0000036C0000034C00000C0
S113006032C0000030C000002EC000002CC00000D0
S11300702AC0000028C0000026C0000024C00000E0
S113008022C0000020C000001EC0000011241FBEBA
S1130090CFEFD0E1DEBFCDBF11E0A0E0B1E0E8E0FA
S11300A0F3E000E00BBF02C007900D92A831B10746
S11300B0D9F721E0A8E1B1E001C01D92A532B20751
S11300C0E1F702D01FC19CCF8FEF81BB8FE08093FB
S11300D0610062E670E082E390E054D087B7846008
S11300E087BF84E08EBD8FB780688FBF789480917E
S11300F01C0190911D01A0911E01B0911F01019757
S1130100A140B10540F010921C0110921D01109203
S11301101E0110921F0160911C0170911D018091BC
S11301201E0190911F017ED0E2CF1F920F920FB655
S11301300F9211248F939F93AF93BF9380911C01CF
S113014090911D01A0911E01B0911F010196A11D66
S1130150B11D80931C0190931D01A0931E01B093C7
S11301601F01109218011092190110921A01109295
S11301701B01BF91AF919F918F910F900FBE0F9074
S11301801F901895909305018093040170930301C7
S1130190609302010895E0910201F091030120812E
S11301A02F602083E0910201F091030123E030E00D
S11301B0281B390B81E090E002C0880F991F2A9513
S11301C0E2F78095908189238083E0910401F09186
S11301D0050160838FE99FE00197F1F700C00000FB
S11301E008950F931F93CF93DF938C01C0E0D0E069
S11301F00DC0F801EC0FFD1F6081CE01CCDF8FE153
S11302009EE40197F1F700C000002196809100015F
S113021090910101C817D90764F3DF91CF911F9121
S11302200F910895EF92FF920F931F93CF93DF9353
S11302308B019C01222733276F707727D901C801CE
S1130240689413F8B695A795979587951694D1F762
S1130250EC01CF70DD27BB27A32F922F812F7C01C8
S11302604FE0E422FF24D901C801072E7CE0B695B3
S1130270A795979587957A95D1F7702D6A5F7E4FEC
S1130280FB01608140E251E0FA016083CA5FDE4F06
S113029068816183F701EA5FFE4F6081FA0162833E
S11302A0FC01EA5FFE4F8081FA0183830115F0E1CE
S11302B01F072105310570F40F3F11052105310594
S11302C009F058F4003111052105310548F082E0A8
S11302D090E008C084E090E005C083E090E002C0B4
S11302E081E090E0909301018093000180E291E02D
S11302F078DF80E291E0DF91CF911F910F91FF9021
S10B0300EF900895F894FFCF7B
S11303080400620032003F065B4F666D7D277F67FD
S10B0318777C585E7971000046
S9030000FC
