:1000000045C0000060C000005EC000005CC0000091
:100010005AC00000D6C00000F5C0000037C1000083
:1000200052C0000050C000004EC000004CC0000094
:100030004AC0000048C0000052C1000044C0000097
:1000400042C0000040C000003EC000003CC00000B4
:100050003AC0000038C0000036C0000034C00000C4
:1000600032C0000030C000002EC000002CC00000D4
:100070002AC0000028C0000026C0000024C00000E4
:1000800022C0000020C000001EC0000011241FBEBE
:10009000CFEFD0E1DEBFCDBF11E0A0E0B1E0E6EFF1
:1000A000F6E000E00BBF02C007900D92A831B10747
:1000B000D9F721E0A8E1B1E001C01D92A732B20753
:1000C000E1F702D016C39CCF8AB387608ABB8FEF5B
:1000D00081BB8FE08093610062E670E082E390E094
:1000E0004CD187B7846087BF84E08EBD80E789BF2D
:1000F0008AE28ABF8FB780688FBF7894C0E0D0E073
:1001000080911C0190911D018130910539F083305F
:100110009105C1F1892B09F047C044C080911801B5
:10012000909119010297E9F480911E0190911F01AD
:10013000A0912001B09121014E96A11DB11D809387
:100140001E0190931F01A0932001B0932101809183
:100150001C0190911D01019790931D0180931C013A
:1001600004C0C0911E01D0911F01CA35D105E1F430
:1001700080911C0190911D01029690931D01809326
:100180001C0112C064EF71E082E090E0DCD12196A6
:1001900080911C0190911D01029790931D01809305
:1001A0001C0102C0C0E0D0E0F1D1CE011ED26091AE
:1001B0001E0170911F0180912001909121012DD18C
:1001C0009FCF1F920F920FB60F9211248F939F9380
:1001D00080911C0190911D01019690931D018093C7
:1001E0001C0180911C0190911D01039724F0109235
:1001F0001D0110921C019F918F910F900FBE0F90C7
:100200001F9018951F920F920FB60F9211248F9383
:100210009F9380911801909119010297A9F4809100
:100220001A0190911B01019690931B0180931A0172
:1002300080911A0190911B01039734F081E090E0C6
:1002400090931B0180931A018091180190911901DC
:100250000497A9F480911A0190911B010196909343
:100260001B0180931A0180911A0190911B0105973F
:1002700034F083E090E090931B0180931A019F91EA
:100280008F910F900FBE0F901F9018951F920F9295
:100290000FB60F9211248F939F9380911801909124
:1002A000190101969093190180931801809118010A
:1002B00090911901059764F010921D0110921C0194
:1002C00010921B0110921A0110921901109218013C
:1002D0009F918F910F900FBE0F901F9018951F92B6
:1002E0000F920FB60F9211248F939F93AF93BF93EA
:1002F00080911A0190911B01892BC9F480911C01F6
:1003000090911D01019799F480911E0190911F0118
:10031000A0912001B09121010196A11DB11D8093F2
:100320001E0190931F01A0932001B09321018091A1
:100330001A0190911B010397B9F480911E019091CD
:100340001F01A0912001B09121010097A105B105E5
:1003500059F00197A109B10980931E0190931F01E3
:10036000A0932001B0932101BF91AF919F918F91F4
:100370000F900FBE0F901F901895909305018093DA
:10038000040170930301609302010895E09102015A
:10039000F091030120812F602083E0910201F09110
:1003A000030123E030E0281B390B81E090E002C01C
:1003B000880F991F2A95E2F7809590818923808381
:1003C000E0910401F091050160838FE99FE00197BE
:1003D000F1F700C0000008950F931F93CF93DF93B0
:1003E0008C01C0E0D0E00DC0F801EC0FFD1F608172
:1003F000CE01CCDF8FE19EE40197F1F700C0000051
:1004000021968091000190910101C817D90764F3EA
:10041000DF91CF911F910F9108954F925F926F924C
:100420007F928F929F92AF92BF92CF92DF92EF9284
:10043000FF92CF93DF9300D000D0CDB7DEB720E19D
:100440003EE040E050E033D16B017C010F2EFAE03A
:100450008F2E912CA12CB12CF02DA501940127D128
:1004600069837A838B839C83CA01B90126E030E0DB
:1004700040E050E01CD12B013C01C701B6012CE348
:1004800030E040E050E013D1CA01B901A501940168
:100490000ED14B015C01C701B60128E532E040E016
:1004A00050E005D1E981FA81EA5FFE4F8081E2E206
:1004B000F1E08083D201AA5FBE4F8C918183D40189
:1004C000AA5FBE4F8C918283D901AA5FBE4F8C91E7
:1004D000838388E5C81682E0D806E104F10478F445
:1004E0008CE3C816D104E104F10460F48AE0C81674
:1004F000D104E104F10448F082E090E008C084E017
:1005000090E005C083E090E002C081E090E090932D
:1005100001018093000182E291E05EDF82E291E0DE
:100520000F900F900F900F90DF91CF91FF90EF9071
:10053000DF90CF90BF90AF909F908F907F906F9003
:100540005F904F90089521E030E0A90102C0440F70
:10055000551F8A95E2F7CA019BB3982B9BBB5FEFAF
:1005600029E638E1515020403040E1F700C000005A
:100570009BB3809589238BBB4FEF59E688E14150AF
:1005800050408040E1F700C00000089580911801BC
:10059000909119018130910521F083309105C9F0C6
:1005A000089510921D0110921C0121E030E030935B
:1005B0001B0120931A0110921E0110921F0110922C
:1005C0002001109221010196909319018093180146
:1005D000089523E030E030931B0120931A01019627
:1005E0009093190180931801089520911A01309178
:1005F0001B0122303105C9F01CF4232B49F008956A
:100600002330310589F12530310509F440C00895C2
:10061000092E000CAA0BBB0B80931E0190931F01A7
:10062000A0932001B0932101089580911E01909123
:100630001F01A0912001B09121018E319105A105EA
:10064000B10558F04E97A109B10980931E0190930E
:100650001F01A0932001B093210121503109309353
:100660001B0120931A01089580911E0190911F0192
:10067000A0912001B0912101892B8A2B8B2BB1F401
:100680002E5F3F4F30931B0120931A01089540E0E5
:1006900050E06AEF73E480E090E055DF10921B01B8
:1006A00010921A0110921901109218010895A1E2F6
:1006B0001A2EAA1BBB1BFD010DC0AA1FBB1FEE1FDC
:1006C000FF1FA217B307E407F50720F0A21BB30B27
:1006D000E40BF50B661F771F881F991F1A9469F7A3
:1006E00060957095809590959B01AC01BD01CF01FF
:0606F0000895F894FFCF0D
:1006F6000400620032003F065B4F666D7D277F6710
:08070600777C585E7971000058
:00000001FF
