S01300007465737430335F696E74722E73726563D2
S113000045C0000060C000005EC000005CC000008D
S11300105AC0000092C10000B1C10000D9C1000063
S113002052C0000050C000004EC000004CC0000090
S11300304AC0000048C00000DDC1000044C0000008
S113004042C0000040C000003EC000003CC00000B0
S11300503AC0000038C0000036C0000034C00000C0
S113006032C0000030C000002EC000002CC00000D0
S11300702AC0000028C0000026C0000024C00000E0
S113008022C0000020C000001EC0000011241FBEBA
S1130090CFEFD0E1DEBFCDBF11E0A0E0B1E0E2E4FC
S11300A0F4E000E00BBF02C007900D92A831B10745
S11300B0D9F721E0A8E1B1E001C01D92A532B20751
S11300C0E1F7DCD0BCC19CCFE0910201F0910301C7
S11300D020812F602083E0910201F091030123E04D
S11300E030E0281B390B81E090E002C0880F991F93
S11300F02A95E2F78095908189238083E091040119
S1130100F091050160838FE99FE00197F1F700C04A
S1130110000008950F931F93CF93DF938C01C0E0E9
S1130120D0E00DC0F801EC0FFD1F6081CE01CCDFE3
S11301308FE19EE40197F1F700C0000021968091C1
S1130140000190910101C817D90764F3DF91CF91A1
S11301501F910F910895EF92FF920F931F93CF93E6
S1130160DF938B019C01222733276F707727D901F6
S1130170C801689413F8B695A79597958795169432
S1130180D1F7EC01CF70DD27BB27A32F922F812F4E
S11301907C014FE0E422FF24D901C801072E7CE052
S11301A0B695A795979587957A95D1F7702D6A5F3F
S11301B07E4FFB01608140E251E0FA016083CA5F37
S11301C0DE4F68816183F701EA5FFE4F6081FA01C7
S11301D06283FC01EA5FFE4F8081FA01838301158B
S11301E0F0E11F072105310570F40F3F11052105CA
S11301F0310509F058F4003111052105310548F0A5
S113020082E090E008C084E090E005C083E090E0E4
S113021002C081E090E0909301018093000180E2AC
S113022091E078DF80E291E0DF91CF911F910F910F
S1130230FF90EF90089521E030E0A90102C0440F3F
S1130240551F8A95E2F7CA019BB3982B9BBB5FEFBE
S113025029E638E1515020403040E1F700C0000069
S11302609BB3809589238BBB4FEF59E688E14150BE
S113027050408040E1F700C0000008958AB38760D1
S11302808ABB8FEF81BB8FE08093610087B7846066
S113029087BF80E789BF8AE28ABF8FB780688FBF34
S11302A0789480911A0190911B018130910599F005
S11302B01CF4892B39F023C08330910579F005971C
S11302C0B9F01DC010921C0110921D0110921E0164
S11302D010921F0114C084E08EBD11C080911A01D8
S11302E090911B01029690931B0180931A0107C001
S11302F040E050E06AEF73E481E090E09CDF80919D
S11303001C0190911D01A0911E01B0911F01019744
S1130310A140B10540F010921C0110921D011092F1
S11303201E0110921F0160911C0170911D018091AA
S11303301E0190911F010FDFB4CF1F920F920FB6D1
S11303400F9211248F939F9380911A0190911B0116
S1130350019690931B0180931A0180911A01909148
S11303601B01039724F010921B0110921A019F9114
S11303708F910F900FBE0F901F9018951F920F92A0
S11303800FB60F9211248F939F938091180190912F
S11303901901019690931901809318018091180115
S11303A090911901039724F01092190110921801E9
S11303B08091180190911901029690931B018093EA
S11303C01A019F918F910F900FBE0F901F90189557
S11303D01F920F920FB60F92112410921B011092CC
S11303E01A0110921901109218010F900FBE0F906C
S11303F01F9018951F920F920FB60F9211248F938E
S11304009F93AF93BF9380911C0190911D01A09184
S11304101E01B0911F010196A11DB11D80931C0105
S113042090931D01A0931E01B0931F01BF91AF9142
S11304309F918F910F900FBE0F901F901895F89475
S1050440FFCFE8
S11304420400620032003F065B4F666D7D277F67C2
S10B0452777C585E797100000B
S9030000FC
