S01300007465737430335F696E74722E73726563D2
S113000045C0000060C000005EC000005CC000008D
S11300105AC0000079C1000098C10000C0C10000AE
S113002052C0000050C000004EC000004CC0000090
S11300304AC0000048C0000046C0000044C00000A0
S113004042C0000040C000003EC000003CC00000B0
S11300503AC0000038C0000036C0000034C00000C0
S113006032C0000030C000002EC000002CC00000D0
S11300702AC0000028C0000026C0000024C00000E0
S113008022C0000020C000001EC0000011241FBEBA
S1130090CFEFD0E1DEBFCDBF11E0A0E0B1E0E6ECF0
S11300A0F3E000E00BBF02C007900D92A831B10746
S11300B0D9F721E0A8E1B1E001C01D92A132B20755
S11300C0E1F7DCD07EC19CCFE0910201F091030105
S11300D020812F602083E0910201F091030123E04D
S11300E030E0281B390B81E090E002C0880F991F93
S11300F02A95E2F78095908189238083E091040119
S1130100F091050160838FE99FE00197F1F700C04A
S1130110000008950F931F93CF93DF938C01C0E0E9
S1130120D0E00DC0F801EC0FFD1F6081CE01CCDFE3
S11301308FE19EE40197F1F700C0000021968091C1
S1130140000190910101C817D90764F3DF91CF91A1
S11301501F910F910895EF92FF920F931F93CF93E6
S1130160DF938B019C01222733276F707727D901F6
S1130170C801689413F8B695A79597958795169432
S1130180D1F7EC01CF70DD27BB27A32F922F812F4E
S11301907C014FE0E422FF24D901C801072E7CE052
S11301A0B695A795979587957A95D1F7702D6A5F3F
S11301B07E4FFB0160814CE151E0FA016083CA5F2C
S11301C0DE4F68816183F701EA5FFE4F6081FA01C7
S11301D06283FC01EA5FFE4F8081FA01838301158B
S11301E0F0E11F072105310570F40F3F11052105CA
S11301F0310509F058F4003111052105310548F0A5
S113020082E090E008C084E090E005C083E090E0E4
S113021002C081E090E090930101809300018CE1A1
S113022091E078DF8CE191E0DF91CF911F910F9104
S1130230FF90EF90089521E030E0A90102C0440F3F
S1130240551F8A95E2F7CA019BB3982B9BBB5FEFBE
S113025029E638E1515020403040E1F700C0000069
S11302609BB3809589238BBB4FEF59E688E14150BE
S113027050408040E1F700C0000008958AB38760D1
S11302808ABB8FEF81BB8FE08093610080E789BFD9
S11302908AE28ABF8FB780688FBF7894C0E0D0E0CD
S11302A080911A0190911B018130910551F01CF449
S11302B0892B09F122C08330910529F0059799F023
S11302C01CC021961AC01C161D060CF421972097F9
S11302D0A1F480911A0190911B01029690931B0145
S11302E080931A010AC040E050E06AEF73E481E0B1
S11302F090E0A1DF02C0C0E0D0E0BE010D2E000CF2
S1130300880B990B28DFCCCF1F920F920FB60F9258
S113031011248F939F9380911A0190911B01019650
S113032090931B0180931A0180911A0190911B01F3
S1130330039724F010921B0110921A019F918F9140
S11303400F900FBE0F901F9018951F920F920FB62B
S11303500F9211248F939F9380911801909119010A
S1130360019690931901809318018091180190913E
S11303701901039724F01092190110921801809129
S1130380180190911901029690931B0180931A0110
S11303909F918F910F900FBE0F901F9018951F92F1
S11303A00F920FB60F92112410921B0110921A0192
S11303B010921901109218010F900FBE0F901F9008
S10903C01895F894FFCF2C
S11303C60400620032003F065B4F666D7D277F673F
S10B03D6777C585E7971000088
S9030000FC
